:020000040800F2
:1000000000200020D9130008211400082114000842
:100010002114000821140008211400080000000029
:100020000000000000000000000000002114000893
:100030002114000800000000211400082114000809
:1000400000000000000000000000000000000000B0
:1000500000000000000000000000000000000000A0
:100060000000000000000000000000000000000090
:100070000000000000000000000000000000000080
:100080000000000000000000000000000000000070
:100090000000000000000000000000000000000060
:1000A0000000000000000000000000000000000050
:1000B0000000000000000000000000000000000040
:1000C0000000000000000000000000000000000030
:1000D0000000000000000000000000000000000020
:1000E0000000000000000000000000000000000010
:1000F0000000000000000000000000000000000000
:1001000000000000000000000000000000000000EF
:1001100000000000000000000000000000000000DF
:1001200000000000000000000000000000000000CF
:1001300000000000000000000000000000000000BF
:1001400000000000000000000000000000000000AF
:10015000000000000000000000000000000000009F
:10016000000000000000000000000000000000008F
:10017000000000000000000000000000000000007F
:08018000000000000000000077
:1001880070B5140006000D0002680B6882B01340B9
:10019800236042684B6801A81340636000F048F987
:1001A8003368706869682A6819400240019B2068B2
:1001B80058402060606843404B405340636002B041
:1001C80070BDC04602B47146490849000956490045
:1001D8008E4402BC7047C04602B4714649084900C3
:1001E800095C49008E4402BC7047C046002243089F
:1001F8008B4274D303098B425FD3030A8B4244D3E7
:10020800030B8B4228D3030C8B420DD3FF22090228
:1002180012BA030C8B4202D31212090265D0030BE7
:100228008B4219D300E0090AC30B8B4201D3CB03DD
:10023800C01A5241830B8B4201D38B03C01A52411F
:10024800430B8B4201D34B03C01A5241030B8B4221
:1002580001D30B03C01A5241C30A8B4201D3CB020C
:10026800C01A5241830A8B4201D38B02C01A5241F1
:10027800430A8B4201D34B02C01A5241030A8B42F4
:1002880001D30B02C01A5241CDD2C3098B4201D30C
:10029800CB01C01A524183098B4201D38B01C01A8A
:1002A800524143098B4201D34B01C01A5241030901
:1002B8008B4201D30B01C01A5241C3088B4201D3B0
:1002C800CB00C01A524183088B4201D38B00C01A5D
:1002D800524143088B4201D34B00C01A5241411A84
:1002E80000D20146524110467047FFE701B5002091
:1002F80000F006F802BDC0460029F7D076E770473F
:100308007047C0460448054B10B5834203D0044BE0
:10031800002B00D0984710BD0400002004000020E6
:100328000000000006480749091A8B10C90FC918B0
:1003380010B5491003D0044B002B00D0984710BDCE
:1003480004000020040000200000000010B5074C45
:100358002378002B09D1FFF7D5FF054B002B02D0DE
:10036800044800E000BF0123237010BD8402002070
:100378000000000080140008054B10B5002B03D0C6
:100388000449054800E000BFFFF7CCFF10BDC04698
:1003980000000000880200208014000803000A0002
:1003A800012010B5042906D1034C1900200001F0E2
:1003B80059F80020606010BD0400002010B504004A
:1003C8008AB0012010292FD121000422684601F0AB
:1003D80049F8211D042201A801F044F82100042253
:1003E800083102A801F03EF82100002404220C3153
:1003F80003A801F037F8019B0493009B0593039B26
:100408000693029B0793094B5C6000F0DBF908AA8E
:1004180006A904A8FFF7B4FE00F0DDF97220082150
:1004280008AA00F04DF920000AB010BD0400002011
:10043800034A536899008958013301605360704733
:100448000400002010B500F041F900F057F900F061
:1004580095F900F0BDF80421054A702000F0B2F8C3
:1004680010217220034A00F0ADF800F0C9F8FCE74B
:10047800A5030008C503000801207047F8B50D0062
:1004880014000F2700F0C8F96519AC4203D10A20FF
:1004980000F0C2F9F8BD2378054E1B09F05C00F0A6
:1004A800BBF9237801343B40F05C00F0B5F9ECE788
:1004B8009814000807B56B46DA1D044B72201B68B8
:1004C80001211370FFF7DAFF00200EBD0C00002099
:1004D8000322114BF0B594461C6800230F4D99B0C8
:1004E800E6B2B34209DB614661436A467220C9B28B
:1004F800FFF7C4FF002019B0F0BD624669465A43B1
:100508001801475D28188F544768007B6A440133F7
:1005180057709070DBB2E4E70C0000201000002058
:1005280070B51400A31A984201DC00201FE04D7832
:100538000B782E00303EF6B2092E0CD826701D001E
:10054800303DEEB2092E15D823782D011D432570B4
:1005580001340231E6E72E00413E052E02D8373D30
:100568002570ECE72E00613E052E01D9012070BDF3
:10057800573DF5E71D00413D052D05D8373B25784A
:100588001B012B432370E3E71D00613D052DEDD8CA
:10059800573BF4E7F0B5094E0500346801201F2CDD
:1005A8000BDC3F2909D8064827013D54C019416092
:1005B80082600373002001343460F0BD0C00002019
:1005C8001000002010B50023FFF7E4FF10BD000065
:1005D80010B50021074A7620FFF7F4FF0021064AEC
:1005E8007720FFF7EFFF00217920044AFFF7EAFFA1
:1005F80010BDC04681040008D9040008BD040008E5
:10060800F0B50025B3B000F0EFF82B4B2B491A6872
:10061800AA4241DC3ED00127284C2D016619337BC4
:100628003B4218D000236A46137200F0DDF84822D6
:100638006B469B18187000F0D7F849226B469B1838
:10064800187002AA380012A9FFF76AFF002821D102
:100658006B461B7A7360002663195B685B00B342C4
:1006680020D800F0C1F80A2801D00D2812D1641949
:10067800656802AA280012A9FFF752FF002809D1CD
:10068800E9B2A36802A8984701AA107001217A204C
:10069800FFF7F4FE33B0F0BD2C010C5D8442BAD0F4
:1006A8000135B5E700F0A0F80A28F3D00D28F1D0FD
:1006B80012ABF0540136CFE70C00002010000020E8
:1006C80010B5002A01D0FFF7D9FE10BD032310B5DD
:1006D800002492B0059305A80233069308940F945A
:1006E80000F0B0F807232100019301A8063B02930C
:1006F8000394049400F0D6FA12B010BD802270B5AD
:100708001B4C9202636988B013436361636990204C
:1007180013400193019BC023DB00012503260393AB
:10072800022303A9C005049305950795069600F0D2
:100738005DFB8022A369D2011343A361A3690D481D
:1007480013400293029B236BB3431D430A4B25635B
:10075800036096231B02436000238360C360036128
:1007680083610C33436100F01DFD08B070BDC046C5
:100778000010024010020020003801408021104B78
:1007880070B55A6989020A435A615B6986B00B40A1
:1007980000939024009B802501230026E405200077
:1007A8006D01029301A9023304930195039600F0A9
:1007B8001DFB32002900200000F0D2FB06B070BDFE
:1007C800001002408021902010B501224901C00587
:1007D80000F0C6FB10BD8021902010B50022490111
:1007E800C00500F0BDFB10BD37B508246B46DD1D04
:1007F800012232232900064800F000FD002801D11B
:1008080028783EBD034A136A23431362EEE7C046C5
:10081800100200200038014007B56B46D91D08704A
:1008280001220248024B00F069FD07BD10020020BA
:1008380088130000024B1868421C1A607047C046B3
:1008480080020020F0B50368040085B0DB0733D4CC
:1008580023689B0700D58AE023681B0700D5CAE0F8
:1008680023685B0700D5EDE02368DB061AD56269CB
:100878000423BB4D012A00D056E1696B02270B43C4
:100888006B636B6B1A436A63FFF7D4FF06006B6BED
:100898003B4200D141E1F8216A6BA3698A43DB003E
:1008A80013436B6323689B0600D565E1616A0029E1
:1008B80000D0A2E1002018E00C22A94D6B6813407B
:1008C800042B0BD06B681340082B10D1C0226B6827
:1008D8005202134080225202934208D12B689B0394
:1008E800B6D56368002BB3D1012005B0F0BD6368AD
:1008F800012B13D180232A685B0213432B60FFF777
:1009080099FF80270600BF022B683B42A0D1FFF762
:1009180091FF801B6428F7D90320E6E7002B16D146
:100928002B68904A802713402B602B688E4ABF02A1
:1009380013402B60FFF77EFF06002B683B4200D177
:1009480086E7FFF777FF801B6428F6D9E4E7052BD5
:1009580005D180232A68DB0213432B60CAE72B6882
:10096800804A13402B602B687F4A1340C6E70C224D
:100978007B4D6B6813420BD06B681340082B15D165
:10098800C0226B68520213408022120293420DD19A
:100998002B689B0702D5E368012BA5D1F8212A68AB
:1009A80023698A43DB0013432B6055E7E268012380
:1009B800002A0FD02A68022713432B60FFF73AFF5B
:1009C80006002B683B42E9D1FFF734FF801B022861
:1009D800F7D9A1E72A6802279A432A60FFF72AFF76
:1009E80006002B683B4200D136E7FFF723FF801B48
:1009F8000228F6D990E7E2690123594D002A10D060
:100A08006A6A022713436B62FFF714FF06006B6ADA
:100A18003B4200D024E7FFF70DFF801B0228F6D9E0
:100A28007AE76A6A02279A436A62FFF703FF0600B9
:100A38006B6A3B4200D113E7FFF7FCFE801B0228DC
:100A4800F6D969E780220021454D5205EB690091EE
:100A5800134208D1EB691343EB61EB69134003932D
:100A6800039B012300938027404E7F0033683B425D
:100A780015D0A368012B22D12A6A13432B62FFF7F2
:100A8800D9FE022706002B6A3B423FD0009B012B70
:100A980000D0E9E6EB69364A1340EB61E4E63368D7
:100AA8003B433360FFF7C6FE019033683B42E0D119
:100AB800FFF7C0FE019BC01A6428F6D92CE7012273
:100AC800002B14D12B6A022793432B622B6A033223
:100AD80093432B62FFF7AEFE06002B6A3B42D5D04C
:100AE800FFF7A8FE234B801B9842F6D914E7052B85
:100AF80005D1296A013B0B432B622B6ABDE72B6AA0
:100B0800934304222B622B6A9343B7E7FFF792FEC5
:100B1800184B801B9842B6D9FEE6FFF78BFE801B68
:100B2800022800D8B3E6F7E6053203D16A6B9A4388
:100B38006A63B0E66A6B0227134301226B636B6B2F
:100B480093436B63FFF776FE06006B6B3B4200D165
:100B5800A8E6FFF76FFE801B0228F6D9DCE6C04640
:100B680000100240FFFFFEFFFFFFFBFF0070004088
:100B7800FFFFFFEF881300000C22464D6B681340FF
:100B8800934209D06B681340082B0ED1C0226B68C2
:100B980052021340934208D16B6BDB0300D485E605
:100BA800236A012B00D09FE680E6236A002B11D030
:100BB80080276B6B7F023B436B63FFF73BFE0600AE
:100BC8006B6B3B4200D071E6FFF734FE801B0228B6
:100BD800F6D9A1E66B6B304A802713406B63FFF7A9
:100BE80029FE06007F026B6B3B4200D15EE6FFF7F1
:100BF80021FE801B0228F6D98EE60C22254D6B6853
:100C08001340082B00D16FE62B68244A13402B6051
:100C180002292FD1FFF70EFE80270600BF042B689C
:100C28003B4221D10F22EB6A80269343226BB60404
:100C38001343EB62A16AE36A6A680B4318490A40E6
:100C480013436B6080232A685B0413432B60FFF710
:100C5800F1FD04002B68334200D02BE6FFF7EAFDD4
:100C6800001B0228F6D957E6FFF7E4FD801B02288F
:100C7800D5D951E6FFF7DEFD80260400B6042B68BF
:100C8800334200D116E6FFF7D5FD001B0228F6D93E
:100C980042E6C04600100240FFFFFEFFFFFFFFFED6
:100CA800FF7FC2FFF7B501224B4E05003368019163
:100CB80013408B4215D32A6893071ED4D20724D435
:100CC8000123326801991A408A4200D973E02B68DF
:100CD8005B0700D577E0E122404BD20300201A6081
:100CE8000AE03368019993430B4333603368134038
:100CF800019A9342DFD00120FEBDF02038494B68AD
:100D08008343A86803434B60D8E76A68344C012AD8
:100D18001AD123689B03EED5032163688B431343E1
:100D28006360FFF787FD6B680700012B1CD10C225D
:100D380063681340042BC3D0FFF77CFD294BC01B0D
:100D48009842F4D90320D7E7022A03D123689B01EC
:100D5800E2D4D0E7032A03D1636BDB03DCD4CAE710
:100D680023689B07D8D4C6E7022B0BD10C226368F3
:100D78001340082BA4D0FFF75DFD1A4BC01B984207
:100D8800F4D9DFE7032B10D00C226368134297D005
:100D9800FFF750FD134BC01B9842F5D9D2E7FFF778
:100DA80049FD104BC01B9842CCD80C2263681340F5
:100DB8009342F4D184E732689A43326032681A4227
:100DC80000D184E797E7064A074953680B40E9686A
:100DD8000B4353607FE7C04600200240000000201C
:100DE8000010024088130000FFF8FFFF554AF0B5D5
:100DF8008218541EA241002389B004320291059240
:100E0800029A12681400DC4001D109B0F0BD012437
:100E18009C40A4466146144001940A4200D18FE0E8
:100E2800029A102452681500A5430395022D0ED18D
:100E380007250F261D40AD00AE40DC08A4000419AC
:100E4800276A0299B7430E69AE403E4326620324DF
:100E580026005D00AE401440AC400168F743B14342
:100E68000C430460039C013C012C0DD80299866850
:100E7800CC683E40AC4034438460614614099C40D1
:100E880046688E43344344600299C6688C683E4085
:100E9800AC403443C460D40052D501262A4C032701
:100EA800A5692A493543A561A4699D08344007947A
:100EB800079C1C00AD006D18A9683C408C46A10039
:100EC8000F2403918C406146A14304919021002492
:100ED800C90588420CD01E493400884208D01D4EEE
:100EE8002419B04204D01C4E3C00B04200D0059CEE
:100EF80003998C4004990C430199AC600E00174C7F
:100F0800CD4327683E43D10301D43E002E402660DE
:100F18006768019E3E43910301D43E002E406660FF
:100F2800A768019E3E43D10201D43E002E40A66030
:100F3800E668019F3743920201D42E403700E760EC
:100F480001335DE700F0FFB70010024000000140E8
:100F58000004004800080048000C00480004014054
:100F6800002A01D0816170478162FCE7F7B504006F
:100F78000E00170001932568EB6933409B1B5A420A
:100F88005341BB4201D0002017E0089B0133F3D046
:100F9800089B002B12D12B680C4A032013402B60AE
:100FA800AB68A332FF3293432200AB60202369323F
:100FB80013705370002368342370FEBDFFF73AFCAA
:100FC800019BC01A089B9842D5D9E4E75FFEFFFF52
:100FD800002373B50400C366FFF72CFC2668174B83
:100FE80005009E420BD0164B9E4208D022002023BB
:100FF80000206932683413705370207076BD3368EE
:101008001B070ED433685B07F0D580210D4B0022F7
:10101800009320002B00C903FFF7A8FF0028E5D0A4
:101028000AE08021074B0022009320002B0089034F
:10103800FFF79CFF0028E5D00320DFE700380140D8
:1010480000440040FFFFFF01F8B503001D699968DF
:10105800046829435D69C26929432068464D1143E4
:10106800284001432160616844481D6A0140D868EE
:10107800014361609969A0682943414D28400143B3
:10108800A16080213F480902844213D103253E48CC
:10109800006B2840013802283ED83C4D285C8A4223
:1010A80041D008281CD8FFF797F8511B471B511B44
:1010B8001B1B56003648844228D1C025802632485A
:1010C800AD02006B0F002840B602B0424DD009D8DF
:1010D800002821D080256D02A8421DD0BA4241D0F7
:1010E800012012E0A842F9D18A4225D15968294B3A
:1010F8004808C018FFF77AF883B2002019000F22B9
:101108001B0791435B0F0B43E360F8BD2248844201
:1011180002D02248844223D18A4217D15968E12358
:1011280048081B04E5E708281CD8FFF74BF8F71B0D
:10113800DF1BF71B1B1B20005968194B4808C018F8
:10114800FFF754F880B2E0600020DEE75968E12339
:101158004808DB03F3E75968802348081B02EEE7D9
:101168008A42BDD101200023C8E78A42F3D15968D9
:10117800802348085B02BCE7F369FFEFFFCFFFFF5E
:10118800FFF4FFFF0038014000100240A8140008D7
:10119800004400400048E80100480040004C00407E
:1011A8000024F40070B5041E01D1012070BD0300B5
:1011B80069331A78D1B2002A02D10200683211705C
:1011C800242201261A70256820002B68B3432B605F
:1011D800FFF73AFFB042E8D06B68074A2000134097
:1011E8002A226B60AB689343AB602B681E432E606A
:1011F800FFF7EEFEDAE7C046FFB7FFFFF0B585B0B0
:10120800039303006A3317001A7804000D000220C4
:10121800202A39D10138002936D0002F34D0802235
:10122800A1685201914204D12269002A01D10542E4
:101238002AD12200683211780220012924D0012104
:1012480011700022E26622321A70FFF7F3FA2300C7
:101258008021A26858331F805F800600490104334B
:101268008A4215D12269002A10D1234A1A801F8880
:1012780022005A32138898B2002B19D12300202259
:101288006A3368341A70207005B0F0BDFF22EDE7AC
:10129800002A04D12269002AF8D07F22E6E78021BB
:1012A80049058A42E3D12269002AF6D03F22DDE7C8
:1012B80013882021013B9BB21380039B00220093DB
:1012C80020003300FFF752FE002812D18021A268C7
:1012D800236849018A4207D12269002A04D19B8CDC
:1012E8003B402B800235C3E79B8C3B402B7001357C
:1012F800BEE70320C8E7C046FF010000F0B585B08F
:1013080003930300693302931B7804000D00160051
:101318000220202B48D10138002945D0002A43D08B
:101328008023A2685B019A4204D12369002B01D172
:10133800014239D1230068331A780220012A33D0B8
:1013480001221A700023029AE36621331370FFF713
:1013580071FA230050331E805E80802607007601D4
:10136800210052310B889AB2002B0ED1039B4021E9
:10137800009320003B00FFF7F9FD002813D120233C
:10138800029A6834137020700EE00B880022013B2B
:101398009BB20B80039B8021009320003B00FFF74A
:1013A800E5FD002802D0032005B0F0BDA36822683F
:1013B800B34208D12369002B05D12B880235DB0500
:1013C800DB0D1385CCE72B7801351385C8E70000C2
:1013D800002103E00B4B5B58435004310A480B4B88
:1013E80042189A42F6D30A4A02E0002313600432F4
:1013F800084B9A42F9D300E000BF00F00FF8FFF75E
:1014080021F8FEE7B41400080000002004000020C2
:1014180004000020A0020020FEE7000070B50026AE
:101428000C4C0D4D641BA410A64209D1002600F0F7
:1014380023F80A4C0A4D641BA410A64205D170BDBE
:10144800B300EB5898470136EEE7B300EB589847DE
:101458000136F2E7AC140008AC140008B014000818
:10146800AC140008002310B59A4200D110BDCC5C22
:10147800C4540133F8E70000F8B5C046F8BC08BC0E
:101488009E467047F8B5C046F8BC08BC9E467047F3
:1014980030313233343536373839414243444546A2
:0414A8000408020032
:0414AC0081030008B0
:0414B00055030008D8
:0414B40000127A00A8
:04000005080013D903
:00000001FF
